:020000040002F8
:10600000B04C0020F9620200016302000363020049
:10601000056302000763020009630200000000003C
:106020000000000000000000000000000B63020000
:106030000D630200000000000F6302001163020004
:106040004D660200136302008D69020013630200B3
:106050001363020013630200C163020013630200B2
:106060001363020013630200136302001363020050
:106070001363020013630200136302001363020040
:1060800013630200A166020013630200136302009F
:10609000D566020013630200DD660200136302008E
:1060A0001363020013630200136302001363020010
:1060B00013630200136302000000000000000000F0
:1060C00013630200136302001363020013630200F0
:1060D0001363020013630200136302000000000058
:1060E00000000000000000000000000000000000B0
:1060F00000000000000000000000000000000000A0
:10610000000000000000000000000000000000008F
:10611000000000000000000000000000000000007F
:10612000000000000000000000000000000000006F
:10613000000000000000000000000000000000005F
:10614000000000000000000000000000000000004F
:10615000000000000000000000000000000000003F
:10616000000000000000000000000000000000002F
:10617000000000000000000000000000000000001F
:10618000000000000000000000000000000000000F
:1061900000000000000000000000000000000000FF
:1061A00000000000000000000000000000000000EF
:1061B00000000000000000000000000000000000DF
:1061C00000000000000000000000000000000000CF
:1061D00000000000000000000000000000000000BF
:1061E00000000000000000000000000000000000AF
:1061F000000000000000000000000000000000009F
:10620000DFF80CD000F0CAF800480047918B02007C
:10621000B04C002030B4044654E8000F0D4644E86A
:106220000053002BF8D1156030BC704730B40446E1
:1062300054E8000F40EA010544E80053002BF7D171
:10624000156030BC704730B4044654E8000F00EAD3
:10625000010544E80053002BF7D1156030BC7047AE
:1062600030B4044654E8000F80EA010544E80053C6
:10627000002BF7D1156030BC704730B4044654E8A9
:10628000000F00EB010544E80053002BF7D1156027
:1062900030BC704730B4044654E8000FA0EB010551
:1062A00044E80053002BF7D1156030BC704770B440
:1062B00004464FF0000054E8006F0D68AE4207BF7F
:1062C00044E80023012044E800630E60002B1CBF5B
:1062D0000020F0E770BC704730B4044654E8000F6B
:1062E00088422CBF451A054644E80053002BF5D1DF
:1062F000156030BC704700000648804706480047DC
:10630000FEE7FEE7FEE7FEE7FEE7FEE7FEE7FEE765
:10631000FEE7FEE7F566020001620200202A04DBC8
:10632000203A00FA02F1002070479140C2F12003A8
:1063300020FA03F31943904070470000004870476B
:1063400088CB020040EA01039B0703D009E008C99B
:10635000121F08C0042AFAD203E011F8013B00F82A
:10636000013B521EF9D27047D2B201E000F8012B76
:10637000491EFBD270470022F6E710B513460A46C5
:1063800004461946FFF7F0FF204610BD421C10F8E6
:10639000011B0029FBD1801A70470000064C074DF5
:1063A00006E0E06840F0010394E8070098471034E5
:1063B000AC42F6D3FFF728FF8CD20200ACD2020029
:1063C0002DE9F04F89B00027002008904FF480702D
:1063D00007900126002412E0079803F005FA40B167
:1063E00000BF7B480068304018B1079803F0EEF911
:1063F000374376000798001D80B20790641C082C74
:10640000EAD34FF4BE7003F0EFF950B14FF4BE7011
:1064100003F0DCF947F0004708AA0121002003F04F
:10642000BBF9F8B200B3012600241BE006EA07001E
:10643000B0B100BF674850F82400C0F30420804684
:1064400000BF644850F82400C0F301408146204654
:1064500001F086FA054615B149464046A84700BFF7
:106460007600641C082CE1D307F0004000287DD0A2
:10647000002006900590002505E04FF0FF3004A9AC
:1064800041F825006D1C002DF7D000BF00200690BC
:1064900000245FE05048005D0390039820F0C0099D
:1064A0004D480057401C002853D004A9484602F02C
:1064B000AFFD00284DD003984FEA901A484601F0EE
:1064C00097FA804601F04CFA0290029810B9BAF19E
:1064D000030F3DD1BAF1030F03D105A9484602F0DD
:1064E000A2FD00BF00BF4FF0A041084600F5E061EB
:1064F00051F82910C1F3014800BF08A9484602F02D
:1065000087FD8346BBF1000F02D0B8F1020F05D022
:10651000BBF1000F1BD1B8F1030F18D1BAF1030F73
:106520000FD1B8F1020F01D1032000E00220019049
:106530004846019903F0D7F80698401CC0B206906F
:1065400000BF029818B151464846029A904700BFD2
:1065500000BF641C042C9DD3069888B34FF001083B
:1065600003AA0121002003F017F900E02DE0002527
:106570000BE003A850F8250008A951F8251088421F
:1065800002D04FF0000802E06D1C002DF1D000BFDA
:10659000B8F1000F02D00020069010E000250CE0BA
:1065A00003A850F8250008A941F8250005A850F8CF
:1065B000250004A941F825006D1C002DF0D000BF76
:1065C000069800287FF462AF00BF09B0BDE8F08FE5
:1065D00004630040106500405425002000F01F02B5
:1065E00001219140024A430942F8231070470000FC
:1065F00080E200E000F01F02012191404209920078
:1066000002F1E022C2F800117047000000F01F0202
:1066100001219140024A430942F8231070470000CB
:1066200000E200E010B5002807DA4A07140E054A18
:1066300000F00F031B1FD45403E04A07130E024A55
:10664000135410BD18ED00E000E400E010B54FF465
:10665000807002F0F8FD80B14FF4807002F0FCFD14
:10666000012002F003FE0D48407930B901200B49AA
:10667000487108460168002088474FF4827002F094
:10668000E2FD50B14FF4827002F0E6FD022002F00C
:10669000EDFD024801680120884710BDE822002076
:1066A00010B500200949086000210948C0F84411CC
:1066B000C0F84811C0F84C1100200549C1F800018C
:1066C00002493C39086005F0AFFC10BD40110140A3
:1066D0000010014010B505F0B1FB10BD10B503F07E
:1066E00053FF10BD01480249086070470090D00375
:1066F000AC23002010B501F005FD28B192480088B8
:10670000C0F304209149086001F050FD10B1904899
:106710009049486701F072FD30B18B48E03800685D
:10672000C0F342308C49086001F092FD28B18B48DB
:10673000006820F080708949086001F0A1FD48B12F
:106740000020874908604FF08041C1F8100182495C
:10675000091F086001F0BEFD18B103207E496431B5
:10676000086001F0CFFD68B105207E490860012076
:106770007C497831086000207A49083108603F2060
:10678000091F086001F0D6FD002855D06E48E030A2
:106790000068754908606C48E4300068091D0860AD
:1067A0006948E8300068091D08606748EC300068F7
:1067B000091D08606448F0300068091D08606248DF
:1067C000F4300068091D08605F48F83000686649C9
:1067D000203108605C48FC300068091D086063488F
:1067E0000068091D08606148001D0068091D0860F7
:1067F0005E4808300068091D08605C480C3000687D
:10680000091D086059481030006857494031086038
:10681000564814300068091D086054481830006854
:10682000091D086051481C300068091D08604F4868
:1068300020300068091D086001F03AFC30B1424880
:10684000CC38006800F04F004949086001F084FC32
:1068500040B14848006800F0010018B16FF0010035
:106860004449086001F0BAFC28B14348006840F48C
:1068700080604149086039487438006840F470000D
:1068800036497439086000BF00BF00BFBFF34F8FA7
:1068900000BF00BF00BF00BF00BF00BFBFF36F8FCE
:1068A00000BF00BF00BF3548006800F0004028B9B5
:1068B0003248001D006800F00040E8B30120304974
:1068C000086000BF2F4800680028FBD015202B4926
:1068D000086000BF2B4800680028FBD0152127481E
:1068E000001D016000BF274800680028FBD0002081
:1068F0002349086000BF234800680028FBD000BF80
:1069000000BF00BF00BF00BFBFF34F8F00BF00BF7D
:1069100000BF1248F038006800F4E0601A490843EC
:10692000001D0E49F039086000BF00BF00BFBFF373
:106930004F8F00BF00BF00E003E000BF00BF00BFFB
:10694000FDE7FFF7CFFE10BD2403001040350140E6
:106950000DF0ADBA00C007403C050040FCED00E082
:106960000C0100401056004020C5004024040010D7
:10697000E40E0040000400403C17004000120010EC
:1069800004E5014000E401400000FA0510B50249A9
:106990000868804710BD0000F022002002E008C80F
:1069A000121F08C1002AFAD170477047002001E089
:1069B00001C1121F002AFBD17047000001462029A7
:1069C00008DA012088400A4A104008B101207047C7
:1069D0000020FCE7402909DAA1F12000012202FA97
:1069E00000F008B10120F2E70020F0E70120EEE717
:1069F000FC06FFBD00BFEFF31081084672B670477A
:106A000030B5A5B03048006806903048807C8DF8DD
:106A10001A003C2116A8FFF7AEFC02208DF85800A2
:106A200001208DF85A0006208DF85B003C2107A854
:106A3000FFF7A1FC0120ADF82C0006A90C91244819
:106A4000021D016816A800F0CDFA044600BF2546D5
:106A500025B100BF284600F03BF900BF00BF1C482D
:106A600000F10C02816807A800F0BCFA044600BFE0
:106A7000254625B100BF284600F02AF900BF00BF17
:106A800018216846FFF777FC01208DF815000020DB
:106A9000ADF80C0001208DF80000002001908DF869
:106AA0001400402002906A4609490A4872DF0446F1
:106AB00000BF254625B100BF284600F009F900BFF8
:106AC00000BF25B030BD0000D0C70200B0230020B9
:106AD000BC220020BA22002070B5012108480078AD
:106AE00073DF044600BF254625B100BF284600F0ED
:106AF000EFF800BF00BF002000F008FE70BD0000EE
:106B0000BA22002010B5002406E00849096811F8EF
:106B1000340003F08BFE641C054800788442F4D3F3
:106B20000448006800F058F910BD0000F822002069
:106B3000FC220020A4C8020010B5002407E0074989
:106B4000096811F83400012103F09AFE641C04481E
:106B500000788442F3D3002010BD0000F82200200A
:106B6000FC2200202DE9F84306460D461746052F66
:106B700002D20720BDE8F88303F0BCFF38B903F068
:106B800059FF044600BF204600B1F3E700BF184894
:106B9000066018480570184807600021174A116000
:106BA00051600020164A1060506015E006EBC508E1
:106BB00014480068009098F802008DF8010098F8D9
:106BC0000000114A694603F0B1FE044600BF2046AA
:106BD00000B1CFE700BF00BF281EA5F10101CDB273
:106BE000E4D10A4A00210A4800F080F8C2E7000018
:106BF000F8220020FC22002000230020082300208F
:106C000010230020A8C802009D840200517F0200CA
:106C1000A4C8020072B600BF03F054F900BF00BF61
:106C200002F0FAFE0028FBD100BF00BF1D491E4A3A
:106C3000891AC908012242EA01401CA103F078F830
:106C400000BF1D48006800F0010000B100BE00BF99
:106C50001449154A891AC908022242EA014017A1BB
:106C600003F066F800BF00BF00BF00BF00BFBFF366
:106C70004F8F00BF00BF00BF0F48E438006800F42A
:106C8000E06012490843001D0B49E439086000BF69
:106C900000BF00BFBFF34F8F00BF00BF00BF00BFEA
:106CA00000BFFDE7FCD20200BCD202004661746165
:106CB0006C206572726F7200F0ED00E053797374AE
:106CC000656D207265736574000000000000FA05B0
:106CD0003EB50446002000900190029002946A465E
:106CE000002144F20100FFF795FF3EBD10B50346B9
:106CF0000C4600BF0B48807808B9082010BD00BFC3
:106D00000AB90720FAE70BB90720F7E71868007CF3
:106D100008B10820F2E71968002008744C744A6131
:106D200000BFEBE7D025002010B504F02BFD0020BC
:106D30000F49087048700B20887000200D490860CA
:106D40000D4908700D4908701420FFF747FC062113
:106D50001420FFF767FC1420FFF74CFC002004F020
:106D6000E7FC04F0DFFC06490860002010BD0000CD
:106D7000D0250020182300202823002029230020CC
:106D80001C2300202DE9F04104460E4617462546F7
:106D900000BF1048807810B90820BDE8F08100BF1E
:106DA0000CB90820F9E7052E01D20720F5E768693C
:106DB00008B90820F1E7687C012801D1304600E0DD
:106DC000002080463B4642463146284605F0DCF826
:106DD000E3E70000D025002070B50446254600BF3B
:106DE0000848807808B9082070BD00BF0CB16869F8
:106DF00008B90820F8E7002028740221284605F089
:106E0000F2F8F1E7D025002010B50446204604F042
:106E10006FFD10BD70B5044625460E488068B0B1C0
:106E2000ADB9FFF7E7FD06460A4800680A49086061
:106E3000084840684FF0E021C1F8040100200549EE
:106E400088601EB900BF62B600BF00BF00BF00BFB0
:106E500070BD0000DC26002000E100E0F8B505462A
:106E60000C4617462088001DB84201D90C20F8BDF9
:106E7000684679DF064600BF304600B1F7E700BF3D
:106E80000320218868542088401C208019202188F4
:106E900068542088401C208020884119BDF80000DB
:106EA00005F02EFB2188084420800020DFE770B524
:106EB00005460C462068401C28B1206802F038FCCA
:106EC000206802F0F8FB6068401C18B1002160687F
:106ED00002F0D7FB2868A169C0F8241500BF617DC6
:106EE000227D286841EA0203C0F86C3500BFD4E96E
:106EF0000012286803F025FC207D012814D1A06829
:106F0000401C18B10021A06802F0BBFBE068401CE7
:106F100028B1E06802F00CFCE06802F0CCFBD4E998
:106F20000221286803F0F6FB70BD70B505460C46DB
:106F30002068401C28B1206802F005FC206802F09F
:106F4000C6FB6068401C18B10021606802F0A6FB17
:106F50002868A169C0F8241500BF617D227D2868DA
:106F600041EA0203C0F86C3500BFD4E9001228687A
:106F700003F014FC207D012814D1A068401C18B136
:106F80000021A06802F08AFBE068401C28B1E0689C
:106F900002F0D9FBE06802F09AFBD4E902212868EC
:106FA00003F0E8FB70BD0000002114E00C48D0F8AD
:106FB0001024012308E000BFD0680079884201D185
:106FC000002303E0D0680268002AF4D100BF0BB1AF
:106FD00008467047491C0A29E8DB4FF0FF30F8E704
:106FE0008C2800202DE9FC410546884616460024E1
:106FF00037880020308095F82D0058B13A46314648
:10700000404600F0F3F8044600BF204608B1BDE852
:10701000FC8100BFA87850B13A4631464046FFF7A0
:107020001DFF044600BF204600B1F0E700BFE8782E
:1070300060B1E97848B23B463246414601F0BEF9BC
:10704000044600BF204600B1E1E700BF686868B1B0
:10705000696891F900003B463246414605F094F8D4
:10706000044600BF204600B1D1E700BF28890028B0
:107070000EDD43460622022105F10800CDE9006736
:1070800005F014FB044600BF204600B1BFE700BF77
:10709000288A00280EDD43460722032105F110004F
:1070A000CDE9006705F002FB044600BF204600B1B1
:1070B000ADE700BF288B00280EDD434615221421C2
:1070C00005F11800CDE9006705F0F0FA044600BFAD
:1070D000204600B19BE700BF286A58B13B463246C4
:1070E0004146286A00F02DFE044600BF204600B14C
:1070F0008DE700BF686A58B13B4632464146686A30
:1071000001F07CFD044600BF204600B17FE700BFD0
:1071100095F82C0000280BDD3B46324641462846B8
:1071200004F0E4FC044600BF204600B16FE700BF56
:10713000287858B13B4632464146284601F01AFEAF
:10714000044600BF204600B161E700BF20465EE76D
:107150002DE9F041044600BF14B90E20BDE8F081CE
:1071600000BF1C2221461C48FFF7ECF81B481A49B7
:107170000860206860B120687ADF05460DB12846B6
:10718000ECE7164821680A6802604968416005E03A
:1071900012487BDF05460DB12846DFE7002617E0E1
:1071A00006EB86000E4901EB800700BF4FF6FF702B
:1071B000388000BF0B4800EB461078600A4A002177
:1071C000381DFFF793FD05460DB10320C6E7761C79
:1071D000002EE5D00020C1E75C240020D42200204E
:1071E0004824002028240020C5C502002DE9FC41C8
:1071F00005460C46174620880930B84202D90C20B3
:10720000BDE8FC8168466DDF064600BF304600B130
:10721000F6E700BF0820218868542088401C2080A1
:107220001B20218868542088401C20802088284406
:10723000DDF801100160BDF8051081802088801DF7
:1072400020809DF80000400818B90020218868546B
:1072500002E00120218868542088401C2080002002
:10726000CEE70000F8B505460F462888212870D0E3
:1072700006DC10280BD0112838D0132868D155E02F
:107280003B2876D0522876D05628F7D192E0524942
:10729000524A891AC908032242EA014050A102F069
:1072A00047FD012000F032FA002000F025FAA888FE
:1072B0004E490880084601884D4801F05DFF0446AC
:1072C00000BF264626B100BF3046FFF701FD00BFD4
:1072D00000BFFFF731FC044600BF264626B100BFC1
:1072E0003046FFF7F5FC00BF00BF72E03A493B4A69
:1072F000891AC908032242EA01403EA102F018FDA2
:10730000012000F0F9F94FF6FF7038490880FFF7C7
:10731000F9FB044600BF264626B100BF3046FFF702
:10732000D7FC00BF00BFFFF7D7FB52E000231A468F
:1073300085212E4800887FDF044600BF264626B1FF
:1073400000BF3046FFF7C4FC00BF00BF41E000E0D3
:107350003EE000200090A88869468FDF044600BF09
:10736000264626B100BF3046FFF7B2FC00BF00BF83
:107370002FE011E0FFE700231A4619461B4800885A
:10738000B1DF044600BF264626B100BF3046FFF7F6
:107390009FFC00BF00BF1CE0A888132176DF0446D5
:1073A00000BF264626B100BF3046FFF791FC00BF64
:1073B00000BF0EE0A888132176DF044600BF2646F2
:1073C00026B100BF3046FFF783FC00BF00BF00E0DE
:1073D00000BF00BFF8BD0000FCD20200BCD202001A
:1073E000436F6E6E6563746564000000B822002010
:1073F000DC230020446973636F6E6E65637465649B
:107400000000000070B504460D462088102806D004
:10741000112808D012280ED0502810D107E020469D
:1074200003F0BEFD0CE0204603F096FE08E0204687
:1074300003F092FF04E0204603F09AFD00E000BF55
:1074400000BF70BD2DE9F04104468846A58820881C
:10745000102804D0112815D01A2847D116E004F0BE
:107460002DF9284604F006F920B900BF0420FFF7E3
:107470002FFC06E0E07B012803D029461D4801F0DF
:10748000FBFC33E0284604F03DF92FE0207A01218F
:10749000B1EB101F01DA012000E000200646207A3F
:1074A0000221B1EB101F01DA012000E000200746A5
:1074B0008EB129460F48001D01F0DEFC2FB1294690
:1074C0000C48083001F0D8FC0FE029460948083084
:1074D00001F0B4FC09E029460648001D01F0AEFCAD
:1074E00029460448083001F0A9FC00BF00BFBDE8F0
:1074F000F08100008424002070B58EB004460E4652
:10750000306860613A4B0FCB01AD0FC504F1120139
:1075100001A862DF054600BF284608B10EB070BD65
:1075200000BFA07C8DF8360041F22350ADF8340046
:1075300022460DA90120A8DF054600BF284600B15C
:10754000ECE700BF202105A8FEF715FF41F224500B
:10755000ADF81400A07C8DF816000120ADF81A00DB
:10756000ADF818009DF8210020F00200801C8DF875
:1075700021009DF8210020F0100010308DF821002E
:1075800001208DF825008DF82700208804F10A02DB
:1075900005A900F033FA05460DB12846BEE72021C3
:1075A00005A8FEF7E8FE41F22550ADF81400A07CD6
:1075B0008DF816000120ADF81A00ADF818009DF8FE
:1075C000210020F00200801C8DF821009DF8210090
:1075D00020F0080008308DF8210001208DF82500EA
:1075E0008DF826002088A21C05A900F007FA95E76F
:1075F000F4C7020070B504460D462E462088502878
:1076000004D12146304603F0D3FE00E000BF00BFA6
:1076100070BD37B586B005460C46012001900020AC
:10762000029003900490059001208DF80A00608973
:10763000ADF8080008A8059001A8049002A9284602
:10764000AEDF09B030BD70B50446204604F052FFED
:10765000054605F0010070BD38B502F053FF044641
:1076600000BF254625B100BF2846FFF731FB00BF0C
:1076700000BF002000906946012002F0B5FD0446DD
:1076800000BF254625B100BF2846FFF721FB00BFFC
:1076900000BF684602F058FE044600BF254625B1EB
:1076A00000BF2846FFF714FB00BF00BF38BD000035
:1076B0007CB500240DE00848055D032600200090FD
:1076C0003346024601460190284601F072FF00BF92
:1076D000641C042CEFD37CBDD8C7020010B504464F
:1076E00004F0010008B100F01BF804F0020008B13A
:1076F000FFF7DEFF10BD000010B504460249085D2B
:10770000012102F02BF810BDD4C7020010B50446C9
:107710000249085D002102F021F810BDD4C7020023
:107720007CB500240CE00948055D0020009003466C
:10773000012211460190284601F03BFF00BF641C66
:10774000042CF0D300F004F87CBD0000D4C7020084
:1077500010B5002403E02046FFF7CEFF641C042C84
:10776000F9D310BD2DE9FC4704460D461646A71C6B
:107770004FF001080020019001A8FFF745FB3048B9
:10778000006828602E4800682D494968411A2C4835
:107790008068401CA0EB010915E00121294801F097
:1077A00088FB01F091F982465146264801F081FBA1
:1077B0002348006822494968411A21488068401CD2
:1077C000A0EB010900BF4F45E7D8B8F1000F30D05A
:1077D0000021009176B1009921F00301491C00912C
:1077E000009921F00401091D0091009964F38911A9
:1077F00000910DE0009921F00301891C009100998E
:1078000021F00401091D0091009964F39F5100913A
:107810000B4909680A4A92681140094A0C3202EB86
:107820008100009901600649096839440C3A1160E9
:1078300000BF9DF80400FFF7EDFA4046BDE8FC8765
:107840008C280020A82C002070B504460D46A168A5
:10785000481CA06020684554D4E90110884202D336
:10786000204601F0A0FD70BD044840680349096846
:10787000884201D1012070470020FCE78C280020BD
:107880002DE9F04105460E460D2D25D11749184A20
:10789000891AC908032242EA014016A102F048FAF7
:1078A00032461B491B480088FFF7B3FE044694B1DB
:1078B00043F2020084420ED0082C0CD043F2014067
:1078C000844208D000BF274627B100BF3846FFF7E3
:1078D000FFF900BF00BF05E000BF2846FFF7F8F939
:1078E00000BF00BF00BFBDE8F0810000FCD2020075
:1078F000BCD2020053656E6420627574746F6E2092
:107900007374617465206368616E67652E000000A2
:10791000B0230020B822002070B540F26662012139
:107920000648FFF71FF9044600BF254625B100BFF2
:107930002846FFF7CDF900BF00BF70BDCC22002064
:107940004FF0FF31054A42F82010082804DBFF23DE
:10795000A0F1080150325354704700000425002064
:107960000146024850F8210070470000042500201D
:107970002DE9F04F03460C464FF0FF390AB10020C5
:1079800000E0082084460AB1082000E00C20804670
:10799000614624E0154850F82100401CF0B91D460E
:1079A0000846274616464FFA80FBDFF840A00AF14A
:1079B000300A0AF805B0DFF834A04AF820704EB952
:1079C0004FFA85FBA0F1080ADFF820E00EF1500E17
:1079D0000EF80AB000BF4FFA81F902E0491C414598
:1079E000D8D300BF4846BDE8F08F00000425002032
:1079F00001460148405670473425002070B590B0CC
:107A000006460C461546A07818B901208DF80E00E0
:107A100002E0A0788DF80E002088ADF80C00002060
:107A20000290607C02A904F0DBF8A07C0DF1090152
:107A300004F0D6F8E07B08B1012000E000209DF8BA
:107A40000A1060F3C3018DF80A10207C08B10120F0
:107A500000E000209DF80A1060F304118DF80A1070
:107A6000207B08B1012000E000209DF80A1060F39F
:107A700000018DF80A10207D08B1022000E00120ED
:107A80009DF80A1060F342018DF80A101C2109A824
:107A9000FEF771FC607BC0F3001018B9607BC0F387
:107AA0004010F8B100200090E07C0DF1010104F0DD
:107AB00097F800BF9DF8000020F00F00401C8DF8E3
:107AC00000009DF8000020F0F00010308DF800005C
:107AD00000BF9DF8020020F00600801C8DF8020017
:107AE000CDF838D0607B8DF82400A07B8DF8250080
:107AF000142104A8FEF73FFC03A8049002A80590F7
:107B0000A088ADF81C00A06820B1E088ADF818008E
:107B1000A0680890A069002849D000200190A069C1
:107B20000088ADF82C00A0694088ADF82E00A0694F
:107B300040680A9001A80D90A169087B01A904F092
:107B40004FF8A169487B0DF1050104F049F8A069DF
:107B5000807A08B1012000E000209DF8061060F353
:107B6000C3018DF80610A069C07A08B1012000E0B9
:107B700000209DF8061060F304118DF80610A0692E
:107B8000007A08B1012000E000209DF8061060F3A3
:107B900000018DF80610A069807B08B1022000E08A
:107BA00001209DF8061060F342018DF80610E0698F
:107BB00008B1E0690C902B4604AA09A93046AADF57
:107BC00010B070BD70B505460DB9094C01E0084C08
:107BD000083409E0204600F06BFE064606B904E0D2
:107BE00028467168884700BFF4E700BF70BD0000F9
:107BF000F824002010B504462CB90120064948702D
:107C00000020FFF7DFFF012C04D10120024988701A
:107C1000FFF7D8FF10BD0000F02400202DE9F04749
:107C200082461F480068002836D01D480068056855
:107C300003F078FD07461B4804682146384604F0E7
:107C4000F1F8C61C1848007808B903F07DFDAE4273
:107C500001D2284600E03046044424F07F44204608
:107C600003F05AFD03F05EFD80463946404604F0BD
:107C7000D9F800F103093946204604F0D3F88145CC
:107C800009D903F04FFD814603F046FD2F2002F095
:107C9000B9FD04F015FA01E003F074FDBDE8F087CA
:107CA000182300201C2300202A23002033B58BB08A
:107CB0000546002000900C9878B100240BE0214686
:107CC0000CA801F0CAF828B1009A501C009001A835
:107CD00020F81240641C142CF1D32C22694628464B
:107CE000FEF730FB0DB030BD01460888062808DBE2
:107CF0000888B0F5486F06DD08884FF6FF7290429D
:107D000001D0072070474888062808DB4888B0F56E
:107D1000486F06DD48884FF6FF72904201D0072079
:107D2000F0E708884FF6FF72904208D048889042EA
:107D300005D008884A88904201DD0720E2E700204C
:107D4000E0E72DE9F04107460D46144698462088A5
:107D5000801D404502D90C20BDE8F0813846FFF770
:107D6000C3FF064600BF304600B1F5E700BF05205F
:107D7000218868542088401C208012202188685463
:107D80002088401C208022885119388804F0B8FBD4
:107D900021880844208022885119788804F0B0FB9B
:107DA0002188084420800020D6E710B5044600BF93
:107DB0002046FEF78DFF00BF10BD000030B587B034
:107DC0001C216846FEF7D7FA002000904FF42020CF
:107DD00001908010029003208DF80C000020ADF877
:107DE0000E008DF810000948059009480690684675
:107DF000FFF7AEF9044600BF254625B100BF28466F
:107E0000FEF766FF00BF00BF07B030BD45AF020000
:107E1000AB7D0200F8B505460C46607A88B9207A39
:107E200010B91048476801E00E4887682A4639466D
:107E30006068FEF7A7FF064616B1304603F0F8FD6E
:107E40000EE0002020720748406948B101208DF8FB
:107E50000000ADF80250034841696846884700BFFA
:107E6000F8BD00005C2400202DE9FF4105460C46CA
:107E7000002002900390ADF80840ADF80A40009051
:107E800001906A4602A9284690DF0646002E32D0AD
:107E9000304602F01DFC074619491A4A891AC908DA
:107EA000012242EA01403B462A46174901F056FFAB
:107EB000BDF8000010B9BDF8020068B1BDF802308D
:107EC000BDF800200E490F4FC91BC908012747EA1A
:107ED00001400EA101F042FFBDF8040058B1BDF809
:107EE00004200749074BC91AC908012343EA014086
:107EF000164901F027FF304604B0BDE8F0810000CC
:107F0000BCD20200BCD202008CCB020054686520B7
:107F10007265717565737465642054582F525820CA
:107F20007061636B6574206C656E6774682069733B
:107F300020746F6F206C6F6E672062792025752F1B
:107F40002575206F63746574732E0000D8CB020012
:107F50002DE9F04F85B04FF000095BE03148006833
:107F600000EBC904227801210020CDE90001084678
:107F70000099FEF7D3F9074688462B4806C807EA5A
:107F8000010008EA020100260246724081EA06006A
:107F900002433BD02448D0E90010B94320EA08004E
:107FA000214AC2E90010207802F03AFD0646227804
:107FB00001210020CDE9030108460399FEF7AEF93F
:107FC0001A4B0CCB00EA020B01EA030A2278354671
:107FD0000020029028460299FEF7A0F98BEA000BD8
:107FE0008AEA010A5BEA0A0B0FD16078012800D106
:107FF00000E00020704080F0010A606820B10AF0C3
:10800000FF0120786268904700BF00BF09F10100BE
:1080100000F0FF090648007881459FDB05B0BDE808
:10802000F08F0000F82200201023002008230020F9
:10803000FC22002010B50021034800F05BFF04463D
:1080400084F3100010BD0000A82C00200146144845
:108050000078144A127890421DD011480078401CD4
:108060000F4A107010460078022801D100201070CD
:108070000D480B4A127850F8220008600B4A086835
:1080800012681044094A10601046006820F07F40D2
:108090001060012070470020086000BFFAE7000070
:1080A0002823002029230020202300201C23002037
:1080B00013480078062820D11148001D007800F0F0
:1080C0000F00D0B90E480830007800F0F0003028DA
:1080D00001D1012070470A480830007800F0F00014
:1080E000402801D10120F5E705480830007800F06C
:1080F000F000502801D10120ECE70020EAE7000061
:10810000E00F00F013480078062820D11148001D28
:10811000007800F00F00D0B90E480830007800F069
:10812000F000302801D1012070470A48083000785B
:1081300000F0F000402801D10120F5E705480830A3
:10814000007800F0F000502801D10120ECE7002079
:10815000EAE70000E00F00F013480078062820D17D
:108160001148001D007800F00F00D0B90E4808300B
:10817000007800F0F000302801D1012070470A4853
:108180000830007800F0F000402801D10120F5E728
:1081900005480830007800F0F000502801D1012097
:1081A000ECE70020EAE70000E00F00F00A48007862
:1081B00006280ED10848001D007800F00F0040B9D5
:1081C00005480830007800F0F000302801D1012087
:1081D00070470020FCE70000E00F00F00648006850
:1081E000062806D10448001D0068062801D1012098
:1081F00070470020FCE700003001001013480078B1
:10820000062820D11148001D007800F00F00D0B9D9
:108210000E480830007800F0F000302801D101202D
:1082200070470A480830007800F0F000402801D17B
:108230000120F5E705480830007800F0F0005028EC
:1082400001D10120ECE70020EAE70000E00F00F098
:108250000A48007806280ED10848001D007800F072
:108260000F0040B905480830007800F0F0003028D1
:1082700001D1012070470020FCE70000E00F00F072
:1082800013480078062820D11148001D007800F01E
:108290000F00D0B90E480830007800F0F000302808
:1082A00001D1012070470A480830007800F0F00042
:1082B000402801D10120F5E705480830007800F09A
:1082C000F000502801D10120ECE70020EAE700008F
:1082D000E00F00F00A48007806280ED10848001D7B
:1082E000007800F00F0040B905480830007800F031
:1082F000F000302801D1012070470020FCE7000089
:10830000E00F00F00A48007806280ED10848001D4A
:10831000007800F00F0040B905480830007800F000
:10832000F000302801D1012070470020FCE7000058
:10833000E00F00F00A48007806280ED10848001D1A
:10834000007800F00F0040B905480830007800F0D0
:10835000F000502801D1012070470020FCE7000008
:10836000E00F00F0F0B5034600241FE0124E306825
:1083700006689E4203D90668F61A06601AE0066887
:108380009B1B06683444002606600B4E35680A4F76
:10839000C6693E60C66846B10E1926F07F46466043
:1083A000C66886601668C661156000BF024800682E
:1083B0000028DBD100BFF0BD1823002030B50446F3
:1083C0001088C01C984201D90C2030BD02201588AD
:1083D00048551088401C1080012015884855108889
:1083E000401C108015884C551088401C10800020BF
:1083F000EBE700003EB500BF9DF8000020F00F0045
:10840000401C00909DF8000020F0F000103000901B
:1084100000BF0D2214A168467CDF044600BF25463C
:1084200025B100BF2846FEF753FC00BF00BF002067
:10843000019002905020ADF80400A020ADF8060095
:108440000020ADF808004FF4C870ADF80A0001A88C
:108450007ADF044600BF254625B100BF2846FEF757
:1084600037FC00BF00BF3EBD4E6F726469635F4260
:108470006C696E6B7900000070B50021064800F051
:10848000DDFD044600BF254625B100BF2846FEF7A6
:108490001FFC00BF00BF70BDC82300202DE9F047BE
:1084A00080468A4642460126002730463946FDF777
:1084B00035FF04460D461E480068FEF78DFC8146D8
:1084C000B9F1000F01D0BDE8F0871A4903C9204077
:1084D0002940002358405940084321D1404602F02A
:1084E0009FFA30B1144903C920432943124A03C2F9
:1084F00007E01148D0E90010A143A8430E4AC2E9A1
:1085000000100C4903C9204329430A4A03C2002230
:108510000A48016806480068FEF734FC814605E019
:10852000044903C9A043A943024A03C200BFCAE7E2
:10853000A4C80200102300200823002000230020EC
:1085400010B501F069FA08B901F0F8FD10BD00009E
:10855000024600210CE001EB8100074B33F82000BC
:10856000904204D101EB810003EB80007047491C6D
:108570000029F0D00020F9E7482400202DE9FC5F15
:1085800083460E4691461F46DDE90C45002E01DA72
:10859000704200E0304682464FF0010803E09AFB4B
:1085A000F9FA08F10108CA45F9DA474500D9B84691
:1085B00034B1002E03DB05F00400042800D1641E52
:1085C00005F0020000B167B105F0010048B944B1FF
:1085D00004E0641E20215846FFF736F90CB1A0458F
:1085E000F7D3002E05DA76422D215846FFF72CF9F5
:1085F00007E005F00400042803D12B215846FFF7BB
:1086000023F905F0020002280DD105F0010050B950
:108610004FB944B104E0641E30215846FFF714F905
:108620000CB1A045F7D33B464A4631465846CDE902
:10863000004503F06BFFBDE8FC9F000070B50546E8
:108640000949286802F06BF8286802F0E7F8044648
:10865000204600F01F0201219140044A430942F8DC
:10866000231000BF00BF70BD8402020080E100E063
:1086700070B505460949286802F082F8286802F0BA
:10868000D1F80446204600F01F0201219140044A1F
:10869000430942F8231000BF00BF70BD1003020061
:1086A00080E100E02DE9F04105460E464FF48E7161
:1086B000286802F028F84FF4A271286802F023F825
:1086C0001C49286802F02EF8286802F0A7F8044632
:1086D000374620463946002809DA4A074FEA126C25
:1086E000154A00F00F031B1F02F803C003E04A07FE
:1086F000130E124A135400BF00BF286802F08EF810
:108700000446204600F01F02012191400C4A430913
:1087100042F8231000BF00BF00F01F02012191406A
:108720004209920002F1E022C2F8001100BF00BF2E
:10873000BDE8F0818000020018ED00E000E400E0F8
:1087400080E200E02DE9F04105460E464FF48871C5
:10875000286802F008F84FF49071286802F003F8D6
:108760004FF49271286801F0FEFF4FF4A27128685F
:1087700001F0F9FF1C49286802F005F8286802F0AA
:1087800051F80446374620463946002809DA4A0798
:108790004FEA126C154A00F00F031B1F02F803C0CA
:1087A00003E04A07130E124A135400BF00BF2868A3
:1087B00002F038F80446204600F01F0201219140E3
:1087C0000C4A430942F8231000BF00BF00F01F020B
:1087D000012191404209920002F1E022C2F8001109
:1087E00000BF00BFBDE8F0811003020018ED00E0FB
:1087F00000E400E080E200E030B50246002013789B
:10880000C3F38003D3B1137803F00303012B02D029
:10881000022B10D107E01388C3F383139B1C0C6851
:1088200023440B6008E00B680225146805EB9454A0
:1088300023440B6000E000BF00BF012030BD2DE9E4
:10884000F0410446A08800EB020CB4F80480904587
:1088500001DD104600E0A088A8EB0005E088C618FE
:10886000B4F80680984501DD184600E0E088A8EBE2
:1088700000074888B4F80080404504DB4888B4F815
:108880000280404502DD0020BDE8F0818888A842D2
:1088900002D38888604501D90020F5E7C888B8422E
:1088A00002D3C888B04201D90020EDE70120EBE7F0
:1088B0000146086808B102680A60704770B505464D
:1088C0000E4614466CB10220FEF720FF0C490D4AFB
:1088D000891AC908032242EA01400BA101F028FAD3
:1088E0000CE00220FEF708FF0549064A891AC9086C
:1088F000032242EA014009A101F01AFA70BD00000A
:10890000FCD20200BCD202005265636569766564E0
:10891000204C4544204F4E21000000005265636505
:1089200069766564204C4544204F4646210000008E
:1089300010B50120FEF7D2FE10BD000010B501F009
:1089400051FF00200149887010BD0000F024002074
:108950001721018041800021017141711B2181712A
:10896000C17170472DE9F041064600274748D0F80D
:10897000008078E016B13446E66947E04448007864
:1089800000EB40014248001D00EBC105001F0078CC
:10899000401C3F490870084600788978884202D117
:1089A00000203B4908706C68287801281AD00228FA
:1089B00002D0032817D107E0686803F0A1FA00B1DC
:1089C0000127002020744EE007E0304908680021AC
:1089D00001742E4AC169116000BF2C48006800284C
:1089E000F3D140E000E03EE000BF207C00B13AE07F
:1089F000A8686060E868A0602869E0606869A061B4
:108A00002448007808B10020606000BF22496068F7
:108A10000968401A20F07F402049884208D21E4948
:108A20006068096803F0FEF9A168084420600FE05F
:108A300019486168006803F0F5F90546A068A84286
:108A400003D9A068401B206001E00020206000BF27
:108A500000206060A060012020740020E0612046BA
:108A600003F01AFA00BF002E84D1094800780849A3
:108A700049788842F8D11FB904480068404502D0BF
:108A80000120BDE8F0810020FBE700001823002052
:108A9000D02500202B2300201C230020FFFF7F0077
:108AA00070B54FF40041002001F0C4F9044600BF46
:108AB000254625B100BF2846FEF70AF900BF00BFD2
:108AC00000F096FF70BD00002DE9FF4100272E4801
:108AD00000F0E8F92C48001F00F0E4F92B4840684A
:108AE00003902A4885680398284028490C3101EBF7
:108AF000800800BF03A94046FFF77EFE30B103980F
:108B0000284022490C3101EB800800E000E0F1E749
:108B100000BF00240AE00398411C284003911B4930
:108B20000C3151F820004DF82400641C022CF2D3C3
:108B3000009800F0030001280DD0022814D1BDF8E0
:108B400006700421009801EB9050401E039901EB40
:108B50009000039009E0BDF806700098C0F3831000
:108B600003990844039000E000BF00BF0648001FBF
:108B700000F091F9064616B104490398486038465A
:108B800004B0BDE8F0810000A42C00208C28002057
:108B9000FFF786FFFFF7CCFE03F097FAFEF7BCFE67
:108BA00002F0F4FCFEF758FDFFF724FCFFF764FC2D
:108BB00002F0E8FFFDF724FFFFF700F90749084A34
:108BC000891AC908032242EA014006A101F0B0F85F
:108BD000FDF782FF00BFFFF7B3FCFCE7FCD2020009
:108BE000BCD20200426C696E6B79206578616D7051
:108BF0006C6520737461727465642E002DE9F04118
:108C000005460E4614469846A888871C2088801C76
:108C10003844404502D90C20BDE8F081FE2F01D92F
:108C20000C20F9E7781C218870542088401C208093
:108C3000FF20218870542088401C208022889119B0
:108C4000288803F05DFC218808442080A88800283B
:108C50000DDDA86808B90720DEE7AA8823889819DF
:108C6000A968FDF76FFB2088A988084420800020B0
:108C7000D2E72DE9FF4F87B0044691461E46A24633
:108C80002546BAF806009AF805104843001F0690DA
:108C9000BAF806B0301DB0FBFBF00590301DB0FBFC
:108CA000FBF10BFB11000490D9F800008119069824
:108CB000814202D90698801B01E0D9F800000746DE
:108CC000C9F8007003E02D680598401E05900598CE
:108CD0000028F8D103900498ABEB0008B84501D9FF
:108CE000384600E04046804623E00399089808444F
:108CF0000290281D049908440190149828B1424616
:108D0000DDE90110FDF71EFB04E04246DDE901014B
:108D1000FDF718FB002004902D68A7EB08070398C7
:108D200040440390BB4501D9384600E05846804690
:108D300000BF002FD9D10BB0BDE8F08F70B503464E
:108D40000C469CB101F0A2F8054600220AE0084852
:108D500000EB820108881E68B04202D11A60002030
:108D600070BD521CAA42F2D30520F9E70020F7E7B4
:108D7000000000002DE9F84F05460F4614469846BE
:108D80002878012804D1687810B90720BDE8F88F49
:108D90002088801C404508D82878012807D12088E1
:108DA000801C69780844404501D90C20EEE72088F2
:108DB000A8EB0000801E86B200962188891CC81985
:108DC00069467DDF814600BF484600B1DEE700BF4F
:108DD0002878022804D06878BDF80010884206DBA5
:108DE000BDF80000B04202DC4FF0090A0BE04FF082
:108DF000080A2878012805D16878B04202DC687832
:108E0000009000E00096BDF80000FE2801D90C207B
:108E1000BCE7BDF80000401C218878542088401C25
:108E20002080208807F800A02088401C208020880F
:108E3000BDF80010084420800020A7E770B5054663
:108E40000C4604F01F0301229A40D143620905EB4E
:108E5000820000F039F8064670BD10B50246480998
:108E600052F8200001F01F040123A340184008B16C
:108E7000012010BD0020FCE770B505460C4604F04B
:108E80001F03012202FA03F1620905EB820000F0E0
:108E90003CF8064670BD10B504460021204600F09F
:108EA0001EF810BD10B504460121204600F02DF833
:108EB00010BDF8B504460D466A4629462046FDF722
:108EC000DCF906460098F8BDF8B504460D466A463A
:108ED00029462046FDF7B7F906460098F8BDF8B5D3
:108EE00004460D466A4629462046FDF7ACF906467B
:108EF0003046F8BDF8B504460D466A462946204678
:108F0000FDF788F906463046F8BDF8B504460D462B
:108F10006A4629462046FDF789F906460098F8BDBD
:108F2000F8B504460D466A4629462046FDF7B2F9D3
:108F300006460098F8BDF8B50446002600200090CB
:108F40006846FDF761FF206800686168884215D9AE
:108F500020680068401E226810600178204600F0FA
:108F600033F80646207A21680978401AC5B220688D
:108F70000079A84201DA2068057100BF9DF8000061
:108F8000FDF748FF3046F8BD0246D068081A138A3C
:108F9000B0FBF3F0C0B27047F8B504460D462E465C
:108FA000002000906846FDF72FFF31462046FFF76E
:108FB000EBFF21680A68511C2368196010709DF846
:108FC0000000FDF727FFF8BD0246138AD06801FBB9
:108FD0000300704710B5014600BF09B90E2010BD4F
:108FE00000BF087A0B79C01AC2B2D1E9003018600C
:108FF00005E008680368581C0C6820601A70101E91
:10900000A2F10103DAB2F4D10B68187100BFE6E7F0
:1090100030B502460B46D40802F00702012090400A
:109020001D5D284030BD30B50B46C20800F007007A
:109030009C5C012585402C439C5430BD70B5044692
:109040000E4600BF0CB90E2070BD00BF2661172070
:10905000208060801B202071002505E0A11D01EB10
:10906000C500FFF775FC6D1C002DF7D00020EBE765
:109070002DE9F047064688464546B488012C01DBB9
:10908000BDE8F0873088242820D006DC102809D0DD
:1090900011280CD0232823D11DE03A280CD05528C4
:1090A0001ED10EE03146284601F0B2FF19E03146EC
:1090B000284602F06AF814E03146284602F0D4F857
:1090C0000FE03146284602F06BF80AE031462846A8
:1090D00002F000F805E03146284602F025F800E0ED
:1090E00000BF00BFA81D00EBC400007918B3A81D85
:1090F00030F834102046A5DF074657B90021A81DD7
:1091000000EBC40001710121A81D00EBC4004171F6
:1091100010E0112F0ED0384601F0DAFA81460749E7
:10912000074A891AC908012242EA01404A4605A1B4
:1091300000F008FE00BF00BFA2E70000BCD20200A2
:10914000BCD2020073645F626C655F6761747463B4
:109150005F65786368616E67655F6D74755F726582
:10916000717565737428292072657475726E6564F3
:109170002025732E00000000024600BF0AB90E2011
:10918000704700BF00BF1078DE2801D00820F7E745
:1091900000BF51800020F3E7024600BF0AB90E204D
:1091A000704700BF00BF09B90E20F9E700BF107873
:1091B000DE2801D10820F3E708685060DE20107037
:1091C0004FF6FF7050800020EAE770B504460E4667
:1091D00000BF06B970BD00BF00BF04B9FAE700BF09
:1091E000354600BF2878DE2800D0F3E700BFA0880E
:1091F0006988884202D1284603F01EFA2088012897
:1092000006D0022809D0112811D0512817D109E021
:10921000211D284602F090F812E0211D284602F098
:109220008AF80DE0211D284602F050F808E0A088D9
:109230006988884202D14FF6FF70688000E000BF65
:1092400000BF00BFC6E701464FF08040405808B15C
:10925000012070470020FCE708B500224FF0804154
:109260000A500958009100BF08BD0000014908607C
:109270007047000008030040012291070A50704720
:1092800010B500240C48007808B1852411E00020B6
:109290000949886048600861C860084801F090FA90
:1092A000044601F089F908B901F080FA0120024969
:1092B0000870204610BD0000F0240020F57B02005D
:1092C00008B5002000906846FDF79EFD0748C0687D
:1092D000401E0649C8600846C06808B9FFF72EFB63
:1092E0009DF80000FDF796FD08BD0000F024002069
:1092F0002DE9F04188B004460F46154626781A48F5
:1093000040F826501949386941F82600787F1849F5
:109310008855202239466846FDF714F804964FF028
:10932000000820781249085C50B10DB1114800E0E6
:10933000002002466946201D01F040FD80460EE0F7
:1093400020780B49085C50B90DB10B4800E00020B3
:109350000246694604F10C0001F068FC8046404674
:1093600008B0BDE8F0810000DC220020E0220020EF
:10937000E4220020B1C30200C1C102000FB438B51D
:109380000446059810B938BC5DF814FB0020009025
:1093900006A800906A462046059900F012F80020C1
:1093A000009000BFEFE770B50446A06800B970BD3B
:1093B000D4E90403A268216898470020A06000BF98
:1093C000F5E72DE9FC5F82460D4614460DB9BDE870
:1093D000FC9F00BF2E786D1C06B9E1E0252E70D1F0
:1093E00000274FF0010900BF2E782B2E0CD02D2E18
:1093F00002D0302E0CD103E047F001076D1C0AE0CB
:1094000047F002076D1C06E047F004076D1C02E000
:109410004FF0000900BF00BFB9F1000FE4D14FF0D9
:10942000000800BF2A2E06D12168081D20600868A8
:1094300080446D1C0DE02E78302E01DB392E00DDCE
:1094400007E06D1CA6F1300008EB880100EB410835
:10945000E8E700BF4FF0000B2E782E2E10D16D1CC8
:1094600000BF2E78302E01DB392E00DD07E06D1CA9
:10947000A6F130000BEB8B0100EB410BF1E700BFD5
:109480002E7800BF6C2E01D0682E02D16D1C2E7874
:1094900000E000E0F6E700BF692E21D008DC252EB1
:1094A0006DD0582E39D0632E0CD0642E6CD116E0BE
:1094B000702E4CD0732E3ED0752E1FD0782E63D1D7
:1094C0002AE065E02168081D2060D1F8009009F0CD
:1094D000FF00019050460199FEF7B6F955E000BF34
:1094E0002168081D2060D1F800905B460A22494699
:1094F0005046CDE90087FFF741F846E02168081D96
:109500002060D1F800905B460A2249465046CDE9DA
:10951000008702F0FBFF38E000BF2168081D2060D3
:10952000D1F800905B46102249465046CDE90087AD
:1095300002F0ECFF29E02168081D20600868019016
:109540003B4642465046019902F032FC1DE021683C
:10955000081D2060D1F8009030215046FEF774F9C4
:1095600078215046FEF770F9002008210B461022A2
:10957000CDE900104946504602F0C8FF05E025211C
:109580005046FEF761F900E000BF00BF6D1C03E02C
:1095900031465046FEF758F9287800287FF41AAF74
:1095A00000BF9AF80C0010B15046FFF7FCFE00BF58
:1095B0000DE7F0B5DDE9054500BF4FF0A0473E4699
:1095C00041EA420747EA830747EA042747EA054C8E
:1095D00006F5E06747F820C0F0BDF0B5DDE90545C8
:1095E00000BF4FF0A0473E4641EA420747EA8307E3
:1095F00047EA042747EA054C06F5E06747F820C02C
:10960000F0BDF0B5DDE9054500BF4FF0A0473E468F
:1096100041EA420747EA830747EA042747EA054C3D
:1096200006F5E06747F820C0F0BDF0B5DDE9054577
:1096300000BF4FF0A0473E4641EA420747EA830792
:1096400047EA042747EA054C06F5E06747F820C0DB
:10965000F0BD1CB5044600200090034601220146DF
:1096600001902046FFF7CDFF1CBD1CB5044600202D
:10967000009003460122014601902046FFF7D5FFE6
:109680001CBD7CB505460C460020009023460246D2
:10969000014601902846FFF7B4FF7CBD7CB5054626
:1096A0000C460020009023460246014601902846C1
:1096B000FFF7BBFF7CBD1CB50446002000900346AD
:1096C0000122114601902046FFF79BFF1CBD1CB5EF
:1096D00004460020009003460122114601902046D6
:1096E000FFF7A3FF1CBD10B50A4600BF4FF0A04313
:1096F000194601F5E06353F8203023F4403401F5B6
:10970000E06343F8204053F8203043EA024401F577
:10971000E06343F8204010BD014600BF4FF0A04079
:10972000024600BFD2F81005C84000F001007047A3
:1097300000BF4FF0A0410A46012303FA00F1C2F82E
:10974000081500BF704700BF4FF0A0410A46012333
:1097500003FA00F1C2F8081500BF704710B561B9EF
:1097600000BF00BF4FF0A0421346012404FA00F2EC
:10977000C3F80C2500BF00BF0CE000BF00BF4FF0D6
:10978000A0421346012404FA00F2C3F8082500BFE2
:1097900000BF00BF10BD000038B50B46074C246861
:1097A0000094014606E05DF82140D4F8105515609C
:1097B000121D491CC4188C42F5D838BD04C80200DB
:1097C00001460148084470470060004038B504462F
:1097D0002046FFF7F5FF002101602046FFF7F0FF6C
:1097E0000068009000BF38BD10B504462046FFF762
:1097F000E7FF0068012800D110BD0020FCE7000051
:1098000001490860704700000463004070B50446D9
:109810000E46FDF7C9FB0546681C08B9284670BD11
:10982000E8B2E168087100BF0C48D0F8100430B904
:109830000A48C0F810440020E16808600BE00748BF
:10984000D0F81004C0680068E16808600348D0F8E8
:109850001004C06804602846E1E700008C2800205E
:109860002DE9F04F93B082460E4617469846DDF834
:109870007090304600F003FC18210DA8FCF77BFD2A
:109880000D97CDF83880CDF8489000252B4608225A
:1098900007A9304600F010FC082509980A90BDF889
:1098A0002000ADF82C00BDF82200ADF82E000020FD
:1098B0008DF83100079800F0030001281BD10798AC
:1098C0004FEA902B0798C0F3C2008DF8300007983C
:1098D000C0F38314A2002B4601A9304600F0ECFB34
:1098E00005EB84050DA80AAB224601A90090584655
:1098F00000F004FB27E0079800F00300022822D1C3
:1099000007984FEA905B0798C0F3C2008DF83000CB
:1099100000BFBBF1080F01D2584600E00820044602
:109920002B46224605A9304600F0C6FB2544ABEB8A
:10993000040B0DAB0AAA214605A800F01FFABBF1E3
:10994000000FE6D100BF304600F0A7FB13B0BDE822
:10995000F08F704710B50124204602F053FC10BD73
:1099600070B505460A4C20780A49085C18B1201DDC
:1099700001F0C8FA07E020780649085C18B904F13C
:109980000C0001F0EFF900BF002002F03BFC70BDBD
:1099900038230020E422002038B504460D46044850
:1099A0004023044A294600902046FFF759FF38BD5E
:1099B0006DBA0200F426002010B502460B4C04EBF1
:1099C000C203012906D0022906D0032906D00429A2
:1099D00008D105E0022007E0042005E0187903E043
:1099E000587901E0002000BF00BF10BDBCD20200CA
:1099F00010B54FF0FF34FFF7ADFF04210548FFF726
:109A000005FF044600BF01200249C968487100BF34
:109A100010BD0000ACD202002DE9F04F8BB0FDF775
:109A200023FF18B100200BB0BDE8F08F0020B7492C
:109A3000C1F8180400BF00BF00BFBFF34F8F00BFC5
:109A400000BF00BF084640680A90084684680A982C
:109A500020400C3101EB800A0025002600200690F2
:109A600000BF0AA95046FEF7C7FEA8B1A748D0F824
:109A7000180488B9A54800680A99884205D8A348FF
:109A80000068A24948600020CDE70A9820409F491D
:109A90000C3101EB800A00E000E0E2E700BF0027A4
:109AA0000BE00A98411C20400A9198490C3151F86A
:109AB000200007A941F827007F1C022FF1D3079847
:109AC00000F0030002287CD10798800D05905021FA
:109AD0000798B1EB905F02DD0798800D00E0502001
:109AE0008146079869F39F50079009F10800049098
:109AF0000798C0F3C20006908548049900F062FA06
:109B00000546002D5BD0284600F0B9FA33460822FE
:109B100007A9284600F0E1FA08360A982040611C9F
:109B2000081A4FEA8008C14535D9B8F1000F06D0B0
:109B30000A98204075490C3101EB800001E0734820
:109B40000C300390B8F1000F01D0404600E04846C9
:109B500000F0FF0BB8F1000F02D06C480C3000E0B1
:109B600000200290B8F1000F02D0A9EB080000E03D
:109B70000020C0B2019033465A462846039900F0AF
:109B8000ACFA5E44029828B133462846DDE901214B
:109B900000F0A3FA0CE00A9820405C490C3101EB7C
:109BA000800B33464A465946284600F096FA00BFD5
:109BB0000598C01C0A9901EB90000A9000BF44E090
:109BC000FFE7079800F0030001283ED10798C0F393
:109BD0008310062803DA0798C0F3831000E00620FC
:109BE000079960F3891107910798C0F3831000F17A
:109BF00002080798C0F3C20006904FEA8801444863
:109C000000F0E0F90546FDB1284600F038FA334689
:109C1000082207A9284600F060FA083600270EE05F
:109C20000A98421C20400A92384A0C3202EB80010A
:109C300033460422284600F050FA361D7F1C079850
:109C4000C0F38310B842EBD800BFE5B32F48D0F87B
:109C50001084D0F8180418B1284600F01EFA31E03C
:109C600019E04FF0000900BFD8F80C004079012836
:109C700000D18146B9F1000F08D000BFD8F800002C
:109C8000294602684046904700BF00BFD8F80C0044
:109C9000D0F8008000BFB8F1000FE2D1284600F0F4
:109CA000FCF90020059005A8FDF7AEF81748D0F89C
:109CB000180410B915490A9848609DF81400FDF77A
:109CC000A9F800BF1DE0FFE71048D0F810840AE0B3
:109CD000C146D9F8000081684846884700BFD8F8D7
:109CE0000C00D0F80080B8F1000FF1D109490A4A00
:109CF000891AC908022242EA014008A100F018F8B6
:109D000000BFFDF7B1FD80F001008CE68C2800203B
:109D10001CD30200FCD20200BCD202004261636B81
:109D2000656E647320666C7573686564000000007E
:109D300070B504460D4600231A462946204601F018
:109D4000FFFF70BDF8B505460E461446009401238A
:109D50006A463146284601F0F3FFF8BD2DE9FC4183
:109D600006460F4614461D460094019502236A4696
:109D70003946304601F0E4FFBDE8FC812DE9F05F93
:109D800007460E4690461D46082E01D9BDE8F09FB5
:109D900095F80C90002028732946404601F004FCF9
:109DA00000240CE0B44205D23A5D1CA12846FFF71E
:109DB000E5FA03E01BA12846FFF7E0FA641C082C33
:109DC000F0D319A12846FFF7D9FA00241AE0B442CB
:109DD00013D217F804A0FCF7B1FA006810F80A00D3
:109DE00000F03E0008B1504600E02E2083465A465F
:109DF0000EA12846FFF7C2FA03E00DA12846FFF79F
:109E0000BDFA641C082CE2D301222946404601F029
:109E100099FB85F80C9000BFB8E700002025303290
:109E200078000000202020007C0000002563000056
:109E3000200000002DE9F04106460F4600BFFF203C
:109E40000D498860002008604860C1F81804C1F816
:109E5000140481F82004094800F019F9044614B1EB
:109E60002046BDE8F081064800F0A4F905480649FF
:109E7000401AC5080020F4E78C2800201CD30200FB
:109E800054CA02001CD30200BCD20200024803499B
:109E9000401AC008704700001CD30200BCD2020068
:109EA00013B50C4621466846FEF748FF28B904481A
:109EB000009A00EBC20108681CBD0020FCE700000E
:109EC000BCD2020070B50C48D0F8104401200A49F9
:109ED00081F820040CE000BF0120E168487100BF58
:109EE0002546286841682846884700BFE06804681E
:109EF000002CF0D170BD00008C2800202DE9FF4718
:109F000007460C46164698460C9D95F80C90002086
:109F100028732946404601F047FB072E47D2DFE869
:109F200006F004090F161F2A370039462846FFF7A6
:109F300025FA3DE0394628462268FFF71FFA37E048
:109F400039462846D4E90023FFF718FA30E0A06824
:109F5000009039462846D4E90023FFF70FFA27E09E
:109F6000D4E90201CDE9000139462846D4E90023AD
:109F7000FFF704FA1CE0D4E902122069CDE90012CF
:109F8000029039462846D4E90023FFF7F7F90FE09D
:109F9000D4E90223D4E90410CDE90023CDE902106D
:109FA00039462846D4E90023FFF7E8F900E000BF6E
:109FB00000BF00222946404601F0C4FA85F80C9003
:109FC000BDE8FF872DE9F84F07468A46388AA0F199
:109FD00004080AF104004044401EB0FBF8F0C0B28F
:109FE00000903846FEF7A7FF044614B90020BDE8EC
:109FF000F88F0020207101216171A4F806802546A8
:10A000000098A0F1010B2C462F604FF0000912E0E0
:10A010003846FEF790FF064636B16079401C607105
:10A020002E603760354604E0204600F008F8002036
:10A03000DDE709F10109D945EAD32046D7E72DE943
:10A04000F05F0446274697F805802646A8F1010BE5
:10A05000002501E036686D1C5D45FBD3D6F800A0F5
:10A060002646002507E0D6F8009031465046FEF718
:10A0700093FF4E466D1C4545F5D3BDE8F09F70B586
:10A08000044625460121281DFEF713FF70BD10B5BB
:10A0900004462046FEF79EFF10BDF8B5044626464E
:10A0A0000121301DFEF73CFF00906D46287810B965
:10A0B0002046FFF7C4FFF8BD2DE9FC4105460E46DA
:10A0C00014461F46019401203B4601AA31460090E8
:10A0D0002846FEF7CEFDBDE8FC812DE9FC41054692
:10A0E0000E4614461F46019400203B4601AA314605
:10A0F00000902846FEF7BDFDBDE8FC8110B50020AC
:10A100000A49087000BF0A49086000BF00BF00BFCD
:10A1100000BFBFF35F8F00BF00BF00BF00BF054996
:10A12000054800F07CFA002010BD00003423002018
:10A1300030230020E0C80200E826002038B500BF28
:10A14000002000906846FCF75FFE00BFF1EE100AA9
:10A15000044624F09F00E1EE100A00BF00BF00BFDC
:10A1600000BF00BFBFF35F8F00BF00BF00BF26204E
:10A1700000F01F0201219140094A430942F82310CF
:10A1800000BF9DF80000FCF745FE00BF00F014FA88
:10A1900010B141DF044602E020BF40BF20BF38BD00
:10A1A00080E200E010B5044600BF2046FCF790FDB9
:10A1B00000BF10BD002182689160826811618268D1
:10A1C00051618268D1608268516082681160704715
:10A1D000014609B90E207047024800680860002057
:10A1E000F9E70000E4CA0200FEB506460C46204628
:10A1F000FFF7EEFF05460DB12846FEBD002000909A
:10A20000019002908DF8006001208DF80200062177
:10A21000ADF8041069462020226869DF054675B153
:10A22000284600F055FA07464049414A891AC908AC
:10A23000012242EA01403A463E49FFF783FD0020F1
:10A2400000900190029001208DF8010000208DF80F
:10A2500002008DF8030069464020226869DF054648
:10A2600075B1284600F034FA07463049304A891A59
:10A27000C908012242EA01403A462F49FFF762FD30
:10A2800000200090019002900A208DF8000069469D
:10A290000120226869DF054675B1284600F018FAEA
:10A2A00007462249224A891AC908012242EA014086
:10A2B0003A462249FFF746FD0020009001900290A7
:10A2C0004FF4B06000906946A120226869DF05461E
:10A2D00075B1284600F0FCF907461449144A891A5A
:10A2E000C908012242EA01403A461549FFF72AFD12
:10A2F00000200090019002908DF800006946A02097
:10A30000226869DF054675B1284600F0E1F9074685
:10A310000649074A891AC908012242EA01403A4619
:10A320000849FFF70FFD002067E700000CD302008B
:10A33000BCD2020078D10200C0D10200D8D0020005
:10A3400024D1020084D002002DE9F04104462568A2
:10A35000204660DF06462068A84225D91E491F4ACC
:10A36000891AC908022242EA01401DA1FFF7E0FC58
:10A3700019491A4A891AC908022242EA01402A46A2
:10A3800023A12368FFF7EAFC01F06CF92168471A62
:10A390001149124A891AC908022242EA01403A4682
:10A3A00028A1FFF7CFFC00E000BF1EB90120304913
:10A3B00008700EE0304600F08BF907460649074A60
:10A3C000891AC908012242EA01403A4629A1FFF749
:10A3D000B9FC3046BDE8F0810CD30200BCD20200CB
:10A3E000496E73756666696369656E742052414D86
:10A3F00020616C6C6F636174656420666F72207499
:10A40000686520536F66744465766963652E000045
:10A410004368616E6765207468652052414D207302
:10A4200074617274206C6F636174696F6E20667200
:10A430006F6D203078257820746F20307825782E45
:10A44000000000004D6178696D756D2052414D200E
:10A4500073697A6520666F72206170706C696361E0
:10A4600074696F6E20697320307825782E000000A3
:10A47000AB23002073645F626C655F656E61626C24
:10A480006528292072657475726E65642025732EA7
:10A49000000000002DE9F04192B080461748007896
:10A4A00010B912B0BDE8F0811CE03420049004A97A
:10A4B00005A861DF044604B115E005AD104901A807
:10A4C00000F0ADF809E000BF03980646376828465B
:10A4D0007168B84701A800F0C3F800BF03980028CE
:10A4E000F1D100BFE1E700BF052C04D000BF20463A
:10A4F000FCF7EEFB00BF00BFD3E70000AB2300205A
:10A50000D8CA02001CB51B48007808B108201CBD41
:10A51000012019490870002001F052FA112801D1D8
:10A520000020F4E7002001F069FA14480068019067
:10A53000002000906846FCF767FC114901A810DF75
:10A5400004460CB9012000E000200A4908709DF87B
:10A550000000FCF75FFC0CB12046D8E7002006495C
:10A5600008700849087001F0A9FB012001F046FAC3
:10A570000020CCE7A8230020AA230020B4CA0200B0
:10A58000156C0200A92300203EB50A49684600F078
:10A5900046F809E0684600F03FF804462568606820
:10A5A000A847684600F05CF8684600F035F80028D7
:10A5B000F0D13EBDA8CA02000148007870470000F3
:10A5C000A82300202DE9FF41074618E003A84BDF30
:10A5D000044604B114E00F49684600F020F809E091
:10A5E00000BF029805462E6869680398B047684620
:10A5F00000F036F800BF02980028F1D100BFE5E76F
:10A6000000BF052C04D000BF2046FCF761FB00BF53
:10A61000BDE8FF81F8CA020001468868704770B53E
:10A6200004460D46256028686060204600F001F869
:10A6300070BD14E0D0E900215268914202D100219E
:10A64000816070474168096842685268914203D04E
:10A65000416809688160F4E7416808314160E9E7D1
:10A6600010B50446A06800B910BD2168A0688968CB
:10A670000844A060D4E901104968884205D16068A7
:10A68000083060602046FFF7D4FF00BFECE7000011
:10A6900070B502460D4B03F5947413E0E61AF01002
:10A6A00000EBD076761003EBC6010D68954201D918
:10A6B0000C4606E0954202D201F1080301E0486829
:10A6C00070BD00BFA342E9D30020F9E700C9020032
:10A6D00030B504462046FFF7DBFF05460DB90248BA
:10A6E00030BD2846FCE70000ECC802000146D1F866
:10A6F0008004C1F8800470470246505808B1012018
:10A7000070470020FCE708B50022425042580092F2
:10A7100000BF08BDC0F80815C0F810257047C0F884
:10A7200008137047C0F8041370470246D2F80403B8
:10A73000084008B1012070470020FCE70122425088
:10A740007047C0F81425C0F80C1570470146D1F8C1
:10A750008004C1F8800470470246505808B10120B7
:10A7600070470020FCE708B5002242504258009292
:10A7700000BF08BDC0F808154FF4A2631A50704717
:10A78000C0F808137047C0F804137047014640F240
:10A790003C504058704701224250704740F20C53E1
:10A7A000195040F214531A507047000010B500F0D1
:10A7B000B5F901200149086000BF10BD180500402F
:10A7C00001460020064A12790AB1852006E0044AB3
:10A7D00011600122024B1A7100225A717047000069
:10A7E000E822002010B50C20FEF746FD00BF00BF98
:10A7F00003480068C0F300400028F8D110BD0000F5
:10A800001804004070B5044604B970BD024EA5019D
:10A810002846B04700BFF8E7B1C802000146080B60
:10A8200040B270470146080B40B2704770B505460C
:10A83000284600F0E9FD20B100212846FEF753FF2D
:10A8400018E0284600F0ECFDA0B12846FDF7D0F84E
:10A8500004462046084951F8201021F0010206491B
:10A8600041F8202000BF012101FA04F003490860EB
:10A8700000BF00BF70BD00001065004008630040CD
:10A880002DE9F04706460D46304600F0BDFDE0B12B
:10A890003046FDF7ADF8083822490F5CBC11032C97
:10A8A00008D13046FEF738FF08B1032000E002204F
:10A8B000804605E0012C01D1022000E00320804603
:10A8C00041463046FEF70FFF2AE0304600F0A8FD73
:10A8D00030B33046FDF78CF80446A00000F58070D8
:10A8E00087B22046104951F8201041F001020E496C
:10A8F00041F8202000BF3846FEF768FF7DB13046A2
:10A90000FDF776F88146FDF72BF88046B8F1000F89
:10A9100004D0012101FA04F0FEF772FF00BF00BF6E
:10A92000BDE8F08754250020106500402DE9FC4764
:10A9300004460E4617464FF00008204600F056FD2C
:10A9400010B14FF0080862E0B078C0F34002394619
:10A950002046FDF70DF80546681C002854D0B07855
:10A96000C0F3800020BBB07800F0010080B100BFD0
:10A9700000BF4FF0A042104600F5E06252F82420DC
:10A9800022F0020100F5E06242F8241000BF0CE062
:10A9900096F80190002000904B4602460146019037
:10A9A0002046FEF71AFE00BF00BF204600F014FD4F
:10A9B000B078C0F34000D0B13078164951F8251076
:10A9C000154A1140134A42F82510114651F8251036
:10A9D0004FF4F85202EA04224FF4403303EA0043F2
:10A9E0001A4311430B4A42F8251000BF0EE0A5F1AF
:10A9F00008000A49085C317840EA811042B2A5F1AA
:10AA0000080006490A5401E04FF0040800BF404620
:10AA1000BDE8FC8710650040FFE0FCFF54250020E6
:10AA200010B504462046FEF777FE08B1012010BDA0
:10AA30000020FCE72DE9F0412A4890F8580018B1B1
:10AA400008252846BDE8F081002404E0204600F0F7
:10AA5000F7FC601CC4B2202CF8DB002404E0204684
:10AA6000FCF76EFF601CC4B20C2CF8DB1D48002103
:10AA700041650622134610461946002809DA4E079A
:10AA80004FEA166C184E00F00F073F1F06F807C07C
:10AA900003E04E07370E154E375400BF00BF0620A7
:10AAA00000BF01218140124A430942F8231000BF30
:10AAB00000BF012181404209920002F1E022C2F868
:10AAC000001100BF00BF4FF4BE70FEF77FFE4FF0D5
:10AAD0000040FEF795FE0120024981F8580000254C
:10AAE0002846AFE70425002018ED00E000E400E070
:10AAF00080E200E0034890F8580008B10120704758
:10AB00000020FCE704250020014601F06040B0F180
:10AB1000005F01D1012070470020FCE7F0B506235B
:10AB200000200146C41700EBD4646411A40004F1B2
:10AB3000E024D4F800410246C51700EBD5656D113D
:10AB4000A0EB45160125B5402C400CB1012400E0D6
:10AB5000002444BB00221C4610462146002807DA88
:10AB60004D072F0E104D00F00F06361FAF5503E0B6
:10AB70004D072E0E0D4D2E5400BF00BF002000BF0C
:10AB8000012181400A4A440942F8241000BF00BF55
:10AB9000012181404209920002F1E022C2F8001135
:10ABA00000BF00BF00BFF0BD18ED00E000E400E012
:10ABB00080E200E02DE9F84307460E46384600F0F3
:10ABC00045FD0446D4B14FF00008002000906846CF
:10ABD000FCF71AF9207910B14FF0010802E0266065
:10ABE000012020719DF80000FCF714F9B8F1000F66
:10ABF00003D011252846BDE8F88300BF002528466C
:10AC0000F9E770B50546284600F020FD044614B16A
:10AC100000202060207170BD10B50249024801F08B
:10AC200021FB10BD60250020002000402DE9F041EF
:10AC300005460E461746287900EB400101EBC0009F
:10AC40001A4901EB80044FF0000894F82A0020B163
:10AC50004FF008084046BDE8F0812A79144B53F8BC
:10AC600022102868FFF7A6FF18B14FF011084046E0
:10AC7000F1E731462846FCF71AF967603069206031
:10AC8000606818B1317F2846FDF70CFD2868042163
:10AC9000C0F8001500BF0020A061E06184F8290021
:10ACA0006061012084F82A004046D4E76025002036
:10ACB00054C802002DE9F04104460F469046207921
:10ACC00000EB400101EBC0001C4901EB8005204670
:10ACD00000F036F818B111263046BDE8F081C5F80D
:10ACE0001480AF600020286285F8280000264FF409
:10ACF0008E712068FFF707FD08212068FFF71EFD11
:10AD00002946206801F00BFA6868A0B92946206836
:10AD100001F0EAF908B90F260BE000BF4FF48E717D
:10AD20002068FFF7E9FC0028F8D00C212068FFF725
:10AD300005FD002068613046CFE700006025002057
:10AD40000146087900EB400202EBC000044A02EB26
:10AD50008000406908B1012070470020FCE7000036
:10AD60006025002070B50446207900EB400101EB1E
:10AD7000C0000C4901EB800520680021C0F80015D7
:10AD800000BF686810B12046FDF758FC204600F06F
:10AD90005DFB2068FFF735FF002085F82A0068601A
:10ADA00070BD00006025002010B50249024801F086
:10ADB0001BFB10BD8C250020002000402DE9F04138
:10ADC00005460E461746287900EBC000194901EBED
:10ADD00080044FF0000894F8200020B14FF00808DC
:10ADE0004046BDE8F0812A79134B53F822102868B9
:10ADF000FFF7E0FE18B14FF011084046F1E7314689
:10AE00002846FCF792F8676030692060606818B1E6
:10AE1000317F2846FDF796FC28680821C0F8001508
:10AE200000BF0020A061E0616061012084F8200083
:10AE30004046D6E78C25002084C802002DE9F04763
:10AE4000044688469146207900EBC000244901EB76
:10AE500080054046FFF758FE18B910263046BDE879
:10AE6000F087204600F03EF810B111263046F6E794
:10AE7000C5F81490C5F8088000264FF4907120683A
:10AE8000FFF771FC4FF4AC712068FFF76CFC206891
:10AE90006A69A968C0F844154FF4A9631A5000BF45
:10AEA00008212068FFF777FC6868B0B900BF4FF44D
:10AEB00090712068FFF750FC82464FF4AC71206817
:10AEC000FFF74AFC0746BAF1000F01D1002FEED080
:10AED00007B10F260020686100BF3046BFE70000C1
:10AEE0008C2500200146087900EBC000044A02EBE3
:10AEF0008000406908B1012070470020FCE7000095
:10AF00008C25002070B50446207900EBC0000C4968
:10AF100001EB800520680021C0F8001500BF6868BB
:10AF200010B12046FDF7A4FB204600F0CBFA2068C4
:10AF3000FFF767FE002085F82000686070BD000004
:10AF40008C25002070B50546287868B93B21074854
:10AF5000008876DF044600BF264626B100BF304693
:10AF6000FBF7B6FE00BF00BF70BD0000B822002096
:10AF700070B50546AE883046FDF7EAFA044674B16E
:10AF80004FF6FF7340F2F31205F1080104F10A00D5
:10AF9000FDF755FC607221463046FCF73BFF70BD63
:10AFA0002DE9F0410546EF7BAE88012F01D0BDE8C9
:10AFB000F0814FF6FF70FDF7CBFA04461CB9042070
:10AFC00000F036FDF3E700BF2680002020720E4817
:10AFD0000168C4F80A104068C4F80E0000BF4FF6BC
:10AFE000FF7340F2F31205F1100104F10A00FDF7BE
:10AFF00026FC60720548C08918B921463046FCF726
:10B0000009FF00BFD3E70000D42200205C24002009
:10B010002DE9F04705460F46B7F80480A81D00EB60
:10B02000C8042879A071F87B012802D0022806D133
:10B0300002E02888208003E06888208000E000BFCC
:10B0400000BF2088618888421BDD21884046A5DF3B
:10B05000064616B90120607113E0112E02D10120BD
:10B0600020710EE03046FFF733FB81460A490B4A58
:10B07000891AC908012242EA01404A4608A1FEF79E
:10B0800061FEA079E179884203DDA1794046FCF7B1
:10B09000EBFEBDE8F0870000BCD20200BCD202008B
:10B0A00073645F626C655F67617474635F65786326
:10B0B00068616E67655F6D74755F726571756573E4
:10B0C0007428292072657475726E65642025732E4C
:10B0D0000000000070B58EB004460E462C22311DD3
:10B0E00003A8FBF72FF9BDF80C50BDF81000C1B252
:10B0F000A01D00EBC500C171206980B1094903C9D9
:10B10000CDE90101ADF80650A01D00EBC500C079E6
:10B110008DF8080001A920462269904700BF0EB0B3
:10B1200070BD0000ECC702002DE9F04705460E4651
:10B13000341D2188A81D00EBC10794F80480B8795C
:10B14000404501DAB87900E040468146208849460A
:10B15000FCF78AFEBDE8F0872DE9F0410646B78886
:10B160003846FDF7F5F905466DB16868FBF734FE22
:10B17000044614B1204600F05BFC00BF4FF6FF70A0
:10B18000288000BF00BFBDE8F08170B504460D46C1
:10B19000AA88A11D01EBC200FDF7DAFB70BD00001B
:10B1A0002DE9FC4705460E46B6F80480B6F8069031
:10B1B000A81D00EBC804B9F1170F01DA172000E051
:10B1C000484681462088484501DD484600E0208801
:10B1D00060800020207121884046B5DF074677B1A6
:10B1E0003846FFF775FA82461049114A891AC9088C
:10B1F000012242EA014052460EA1FEF7A3FD60790A
:10B2000008B1BDE8FC87286968B1164903C9CDE9D2
:10B210000001ADF802806088ADF804006946284658
:10B220002A69904700BF00BFEBE70000BCD20200D4
:10B23000BCD2020073645F626C655F676174747393
:10B240005F65786368616E67655F6D74755F726571
:10B25000706C7928292072657475726E656420257A
:10B26000732E0000E4C702002DE9FC4105460E469E
:10B27000B788B6F80A80A81D00EBC70420884045AF
:10B2800001DD404600E0208860806088172801DAF0
:10B29000172000E060886080286978B1607968B123
:10B2A000094903C9CDE90001ADF802706088ADF825
:10B2B0000400694628462A69904700BF0020607153
:10B2C0002071BDE8FC810000DCC702002DE9FF41D0
:10B2D00006460D4628887188884201D0BDE8FF8166
:10B2E000AC1C2078022800D0F8E7207A042806D089
:10B2F000207A062803D0207A052800D0EEE7002027
:10B30000009001900290039002208DF800004FF40D
:10B31000C070ADF80400207A052802D10020ADF8F5
:10B32000040028886946B0DF074617B138467168BF
:10B33000884700BFD2E7704770B504460D462879AC
:10B34000012808D128886188884204D10120207210
:10B35000204601F071F970BD2DE9F0410446A51DAC
:10B3600028881249C98988421DD1688902281AD1C2
:10B37000B4F804804046FDF7EBF8064696B105F1B7
:10B380000C00FCF760F920B131464046FCF742FD65
:10B3900008E07068FBF720FD074617B1384600F05B
:10B3A00047FB00BF00BFBDE8F08100005C24002027
:10B3B00070B504460D46AE1D30886188884209D1BB
:10B3C0007089012806D1606920B1327BA8882146A6
:10B3D0006369984770BD000010B5044602492046D5
:10B3E000FDF721FE10BD000058250020014605484C
:10B3F0004056012202EBE07008B1012070470020A6
:10B40000FCE7000034250020014604484056082887
:10B4100001DB012070470020FCE7000034250020FC
:10B42000014606484056002805DB044840560828D7
:10B4300001DA012070470020FCE7000034250020DD
:10B44000FF2201490A547047342500202DE9F047B6
:10B4500004462068D0F80C150D462068D0F8141565
:10B460000E462068D0F808150F462068D0F8101551
:10B470008846D4F800904FF0FF3211464846FFF757
:10B4800060F900BFD4F800904FF0FF3211464846F3
:10B49000FFF740F900BF681C10B12846FEF7D9F845
:10B4A000701C10B13046FEF7D4F808F1010010B15D
:10B4B0004046FEF7CEF8781C10B13846FEF7C9F8C2
:10B4C000BDE8F0872DE9F0470446206840F20C51B2
:10B4D00009580D46206840F2145109580E4620685C
:10B4E000D0F808150F4620684FF4A2610958884625
:10B4F000D4F800904FF0FF3211464846FFF74EF95E
:10B5000000BFD4F800904FF0FF3211464846FFF7D5
:10B5100031F900BF681C10B12846FEF7A6F8701C70
:10B5200010B13046FEF7A1F808F1010010B1404615
:10B53000FEF79BF8781C10B13846FEF796F8BDE888
:10B54000F087000070B504460D461646207A05289F
:10B550000CD0607A28B10A480AA102682846FDF793
:10B560000DFF09A12846FDF709FF04E01EB106A161
:10B570002846FDF703FF2846FDF715FF70BD0000C4
:10B580007C230020257300000D0A000070B5FEF733
:10B59000B5FD044600BF254625B100BF2846FBF790
:10B5A00097FB00BF00BF70BDF8B504460D46E088AC
:10B5B00038B116A00090E38816A218A12846FDF71E
:10B5C000DDFE207A05281FD0607A58B1217AA08844
:10B5D000FEF7F2F9174951F82060324616A12846C5
:10B5E000FDF7CCFE2846216800F07DFDA0880021F3
:10B5F000FEF756FC0646207A104951F820203346C3
:10B600000FA12846FDF7BAFEF8BD00001B5B306DA8
:10B61000000000001B5B313B33316D0025734C6F24
:10B6200067732064726F7070656420282564292513
:10B63000730D0A007C23002025730000682300207E
:10B640003C25733E2025733A200000000146034844
:10B65000814201D1024870470020FCE700200040F1
:10B66000F022002002480068810201F1005070477A
:10B670000C01001010B50446142C01DB002010BD95
:10B6800021460548FDF7F8FB21460348001FFDF75A
:10B69000F3FB0120F3E700008024002070B505468D
:10B6A000002406E0044901EB84002946FDF7C6FBAF
:10B6B000641C1D2CF6D370BD7C24002010B598B0FE
:10B6C0000F488068C04317900D48416817A8FDF7E0
:10B6D000FBFB179901A8FCF7E9FA2C2201A90CA899
:10B6E000FAF730FE002405E00DA931F81400FFF749
:10B6F000D5FF641C0C98A042F6D818B010BD00000D
:10B700007824002010B5044621460248FDF796FB38
:10B7100010BD00008024002001490860704700002F
:10B7200040150140014800687047000004150140C1
:10B7300010B504460348046006211120FAF772FF91
:10B7400010BD00000815014010B54FF480300A49C3
:10B7500008600A49C1F804031120FAF73FFF1120DD
:10B76000FAF748FF0120054908602F20FFF74AF843
:10B7700001200349087010BD44130140001001402E
:10B780002A23002010B51120012181400E4A4309CF
:10B7900042F8231000BF4FF480300C4908600C4978
:10B7A000C1F80803012048602F20FFF72BF8012083
:10B7B000074988600020074908602F20FFF722F81A
:10B7C00000200549087010BD80E100E048130140E9
:10B7D000001001401C2300202A23002070B50546DC
:10B7E0000C46A06940B94FF484712846FEF78BFFE0
:10B7F00000BFD5F8180570BD4FF484712846FEF7D8
:10B8000082FF00BFD5F81805C0B2626AE1688854AB
:10B81000606A401C606200BFEDE77FB504460D46DC
:10B82000164601208DF80000029501966846D4E97D
:10B83000001290477FBD7FB504460D461646012095
:10B840008DF80000E9B28DF8081001966846D4E939
:10B85000001290477FBD000010B504462046FBF75C
:10B86000ADF810B942F2010010BD2046002806DAFA
:10B870001C4A00F00F031B1FD25C520902E01A4A57
:10B88000125C52091146082904D20120884000F0B8
:10B89000EC0008B9002000E0012010B942F20200DB
:10B8A000E2E71248806868B16009104951F8200049
:10B8B00004F01F0201219140084361090B4A42F83C
:10B8C00021000CE000BF04F01F0101208840610945
:10B8D000890001F1E021C1F8000100BF00BF002094
:10B8E000C2E7000018ED00E000E400E0DC260020E4
:10B8F00070B50446FBF77EF8054614488068D8B951
:10B9000001201249886012480068124908400F4916
:10B91000086010484FF0E021C1F880010C488038E1
:10B92000D0F88400094948604FF0FF310848001DF5
:10B9300001600020207001E0012020701DB900BFCF
:10B9400062B600BF00BF002070BD0000DC260020F2
:10B9500080E100E0FC06FFBD38B504460D4624B189
:10B96000012C0BD0032C24D11EE0002001218140AA
:10B97000114A430942F8231000BF1BE00020009049
:10B980006846FBF741FA0D48007808B9FDF778FCE6
:10B990000A48C068401C0949C860012088709DF8A9
:10B9A0000000FBF737FA05E0FEF700FFFDF788FC23
:10B9B00000E000BF00BF38BD80E100E0F0240020BF
:10B9C000FEB505460C496846FEF729FE0DE06846BF
:10B9D000FEF722FE0446266828466168B04708B98B
:10B9E0001120FEBD6846FEF73BFE6846FEF714FEDA
:10B9F0000028ECD100BFF4E770CA0200FEB505468E
:10BA00000A496846FEF70BFE0AE06846FEF704FEA8
:10BA10000446266828466168B0476846FEF720FE5F
:10BA20006846FEF7F9FD0028EFD1FEBD8CCA020082
:10BA300010B504460348806918B102488169204660
:10BA4000884710BD5C24002070B505460E4631467F
:10BA5000284675DF044624B1112C02D02046FFF79A
:10BA6000E7FF0CB9012070BD0020FCE72DE9F05F75
:10BA70000E46174607F0FF0A002018490870184CB8
:10BA8000B046D146834620781649085C30B14A4614
:10BA90004146201DFFF7D2F983460AE0207811497C
:10BAA000085C30B94A46414604F10C00FFF702F940
:10BAB00083465D4600BF00BF2C4624B100BF204630
:10BAC000FBF706F900BF00BF00BF0748007818B1B8
:10BAD000024800780028F8D0BDE8F09F4C230020F1
